:1000000013C025C024C023C022C021C020C01FC0EF
:100010001EC01DC01CC01BC01AC019C018C017C00C
:1000200016C015C014C013C011241FBECFEFD1E0FD
:10003000DEBFCDBF11E0A0E0B1E0EAE2F1E002C036
:1000400005900D92A030B107D9F75BD06CC0D8CF26
:1000500084B18E6284B980E58CBD8DB581608DBD23
:10006000299A08958EBD0DB407FEFDCF08958EBD6B
:100070000DB407FEFDCF8EB50895FF920F931F9329
:10008000CF93DF93C82FD42F152F062FF72EEADF3B
:100090008F2DE8DF802FE6DF812FE4DF8D2FE2DF79
:1000A00085E9C03409F081E0DF91CF911F910F9174
:1000B000FF90DDCF5F9A08955F980895CF938FE109
:1000C0009EE40197F1F700C00000F4DFCCE08FEF71
:1000D000C9DFC150E1F7F0DF40E050E0BA0180E451
:1000E000CCDF813021F484E088B9CF9108958FEF7F
:1000F000BEDF88B9EFECF7E03197F1F700C0000000
:10010000F0CFE1E6F0E080E880831082A1DF579A2B
:10011000D1DF8FEF87B981E088B9D0DF88E088B977
:0A01200090E080E00895F894FFCF0E
:00000001FF
