:1000000013C025C024C023C022C021C020C01FC0EF
:100010001EC01DC01CC01BC01AC019C018C017C00C
:1000200016C015C014C013C011241FBECFEFD1E0FD
:10003000DEBFCDBF11E0A0E0B1E0E2E1F7E002C039
:1000400005900D92A430B107D9F70ED360C3D8CF75
:100050008FEF8AB95F9A209A089584B18E6284B92D
:1000600080E58CBD8DB581608DBD299A08958EBDCA
:100070000DB407FEFDCF089595B19C7F95B99DE025
:100080009A95F1F70000F3DF299A0895289A92E0F3
:100090009A95F1F700C02998EADF299A0895DF922E
:1000A000EF92FF920F931F93CF93DF93E82ED92EF9
:1000B000D62F172F042FF52EC22F8AE2DDDF8D2DCC
:1000C000E5DF8E2DE3DF8F2DE1DF802FDFDF8BE299
:1000D000D3DF812FDBDF8D2FD9DF8C2FD7DF8C2F64
:1000E000D5DF8CE2DF91CF911F910F91FF90EF90C0
:1000F000DF90C2CF5F9A2FEF81EE94E021508040D5
:100100009040E1F700C000005F982FEF81EE94E08F
:10011000215080409040E1F700C000005F9A2FEF2F
:1001200081EE94E0215080409040E1F700C0000053
:1001300008958EDFDFDF81E09FDF2FEF89E698E112
:10014000215080409040E1F700C000008BEC94DF2C
:1001500089E39CDF8CE29ADF80E098DF84E396DF1E
:1001600082E094DF8FEC88DF80E090DF81EC8EDF2F
:1001700080E38CDF88EE80DF85E888DF80E086DF43
:1001800088E784DF8AEE78DF80E080DF80E07EDF52
:100190008DEE72DF84E67ADF83E078DF82E176DF5E
:1001A00081E874DF87EF68DF80E270DF80EC64DF76
:1001B00083E26CDF81EC60DF80E168DF85EC5CDF8F
:1001C0008EE364DF88E262DF87EC56DF86E85EDF7D
:1001D00086E352DF88E45ADF8AE34EDF85E556DFA7
:1001E00081EB4ADF80E052DF88E150DF86EB44DFBD
:1001F00088E04CDF82E84ADF87E248DF82EF3CDFBD
:1002000080E044DF86E238DF81E040DF80EE34DFEB
:100210008FE03CDF81E33ADF8BE238DF8CE036DFD2
:100220008EE034DF88E032DF8EE430DF81EF2EDFD6
:1002300087E32CDF87E02ADF80E128DF83E026DF09
:100240008EE024DF89E022DF80E020DF81EE14DF12
:1002500080E01CDF8EE01ADF84E118DF83E016DF28
:1002600081E114DF87E012DF81E310DF81EC0EDF34
:1002700088E40CDF88E00ADF8FE008DF8CE006DF2F
:1002800081E304DF86E302DF8FE000DF81E1F4DE5B
:100290002FEF8DEE92E0215080409040E1F700C0BA
:1002A000000089E2E9CECF93C82F892FEFDE8C2F93
:1002B000CF91ECCEEF92FF920F931F93CF93DF93EA
:1002C000182F092F20910001309101014091020166
:1002D00050910301215031094150510970E060E013
:1002E00090E080E0DCDED0E0C0E0809102019091FF
:1002F0000301C817D907B0F0DF91CF911F910F917B
:10030000FF90EF900895812F902FCDDF8FEFE81AA7
:10031000F80A8091000190910101E816F90698F31E
:100320002196E3CFF12CE12CF4CFCF93DF93FC01A6
:10033000D42FC52F8091020190910301E817F9078E
:10034000A0F480910001909101016817790768F489
:100350009B012F5F3F4FAF014F5F5F4FCF019FDE8C
:100360008D2F9C2FDF91CF919ECFDF91CF9108955C
:10037000CF93C82F86E380DEC370C23081F0C330D4
:10038000F1F088E4C13061F488E280DE80E491E03D
:10039000909303018093020180EF90E00AC088E807
:1003A00075DE80EF90E0909303018093020180E47A
:1003B00091E09093010180930001CF91089588EE20
:1003C000E4CF8EBD0DB407FEFDCF8EB50895FF922C
:1003D0000F931F93CF93DF93C82FD42F152F062F82
:1003E000F72E45DE8F2D43DE802F41DE812F3FDE4D
:1003F0008D2F3DDE85E9C03469F087E8C83451F0BF
:100400008DEFCA3739F085E6C73721F087E7C93E57
:1004100009F081E0DF91CF911F910F91FF90D1CF33
:100420005F9A08955F9808951F93CF93DF93EC012F
:10043000162F8881811304C0DF91CF911F910895F9
:100440008FEFBFDF8883F5CFFF920F931F93CF937A
:10045000DF930F92CDB7DEB78FEC97E00197F1F7FE
:1004600000C00000DDDF1CE08FEF01DE1150E1F77E
:10047000D9DF40E050E0BA0180E4A9DF898361E080
:100480008E010F5F1F4FC801CFDF84E088B94AEAB1
:1004900051E060E070E088E49ADF898389818130EF
:1004A00009F050C08FEF8DDF8FEF8BDF8FEF89DF8B
:1004B0008FEF87DF88E088B940E050E0BA018AE733
:1004C00086DF898361E0C801AFDF8FEF7ADF8FEFCE
:1004D00078DF8FEF76DF8FEF74DF80E188B900E29D
:1004E00080E3F82E40E050E0BA0187E770DF8983AF
:1004F0008981823098F508B940E050E060E070E40E
:1005000089EE65DF898382E39981992321F01FEFCA
:10051000180F81112BC0F8B840E050E060E070E4A3
:1005200081E455DF89838981811135C08FEF88B9D6
:100530009EDD76DF8FEF0F90DF91CF911F910F91AE
:10054000FF9095CD877F853009F4B4CF8FEF39DFE9
:1005500089839AE19A95F1F700C0A0CF8FEF31DF40
:1005600089838AE18A95F1F700C0C2CF913009F4FE
:10057000B9CF113039F440E050E060E070E481E43C
:1005800026DF12E38FEF1DDF89839AE19A95F1F759
:1005900000C0812FB9CF813009F4A4CF8FEF11DFD4
:1005A00089838AE18A95F1F700C0BDCFEF92FF926F
:1005B0000F931F93CF93DF930F92CDB7DEB77B01DD
:1005C0008C018FEF54DD2EDF8FEF51DDA701B801D5
:1005D00081E5FDDE898360E0CE01019625DF6EEFC7
:1005E000CE01019621DF0F90DF91CF911F910F91E6
:1005F000FF90EF9008958FEFE4CE8FEF38DD8FEF0F
:1006000036DD8FEF34DD0CDF8FEF31CD0F931F938D
:10061000CF93DF93CBDFEFDFC82FEDDFD82F0FEFC6
:1006200011E00150110939F4E8DFCE01DF91CF91DB
:100630001F910F9108958FEF1ADDF3CF7ADD8FE1CF
:1006400090E038DE2FEF89E698E12150804090401D
:10065000E1F700C0000083E08BDE8FE99FE00197A7
:10066000F1F700C00000089500D000D000D0CDB751
:10067000DEB780E88093610010926100EEDC579A4B
:10068000CFDE8FEF87B981E088B9DEDED7DF60E0AB
:1006900070E0CB01BBDF88B9C12CD12C760110E012
:1006A00000E0C982DA82EB82FC821E821D826981AF
:1006B0007A818B819C81AADFAC01B8018D819E81FA
:1006C00034DE8D819E8101969E838D8389819A81FE
:1006D000AB81BC810196A11DB11D89839A83AB8337
:1006E000BC83AD81BE81A034B14009F708B90F5F6A
:1006F0001F4F80E4C80E81E0D81EE11CF11CC1141C
:100700009CE2D90691E0E906F10459F6FFCFF8948E
:02071000FFCF19
:04071200F0004001B2
:00000001FF
